:020000040000fa
:080000000002040000000000f2
:020000040000fa
:04000800de03000013
:020000040000fa
:04000c00de0300000f
:020000040000fa
:04001000de0300000b
:020000040000fa
:04001400de03000007
:020000040000fa
:04001800de03000003
:020000040000fa
:04001c00de030000ff
:020000040000fa
:04002000de030000fb
:020000040000fa
:04002400de030000f7
:020000040000fa
:04002800de030000f3
:020000040000fa
:04002c00de030000ef
:020000040000fa
:04003000de030000eb
:020000040000fa
:0400340002030000c3
:020000040000fa
:04003800de030000e3
:020000040000fa
:04003c00de030000df
:020000040000fa
:04004000de030000db
:020000040000fa
:04004400de030000d7
:020000040000fa
:04004800fa020000b8
:020000040000fa
:04004c00de030000cf
:020000040000fa
:04005000de030000cb
:020000040000fa
:040054009a0300000b
:020000040000fa
:040058007003000031
:020000040000fa
:04005c004c03000051
:020000040000fa
:04006000de030000bb
:020000040000fa
:04006400de030000b7
:020000040000fa
:04006800de030000b3
:020000040000fa
:04006c00de030000af
:020000040000fa
:04007000de030000ab
:020000040000fa
:04007400de030000a7
:020000040000fa
:04007800de030000a3
:020000040000fa
:04007c00de0300009f
:020000040000fa
:04008000de0300009b
:020000040000fa
:04008400de03000097
:020000040000fa
:04008800de03000093
:020000040000fa
:04008c00de0300008f
:020000040000fa
:04009000de0300008b
:020000040000fa
:040094002203000043
:020000040000fa
:04009800de03000083
:020000040000fa
:04009c00de0300007f
:020000040000fa
:0400a000de0300007b
:020000040000fa
:0400a400de03000077
:020000040000fa
:0400a800de03000073
:020000040000fa
:0400ac00de0300006f
:020000040000fa
:0400b000de0300006b
:020000040000fa
:0400b400de03000067
:020000040000fa
:0400b800de03000063
:020000040000fa
:0400bc00de0300005f
:020000040000fa
:0400c000de0300005b
:020000040000fa
:0400c400de03000057
:020000040000fa
:0400c800de03000053
:020000040000fa
:0400cc00de0300004f
:020000040000fa
:0400d000de0300004b
:020000040000fa
:0400d400de03000047
:020000040000fa
:0400d800de03000043
:020000040000fa
:0400dc00de0300003f
:020000040000fa
:0400e000de0300003b
:020000040000fa
:0400e400de03000037
:020000040000fa
:0400e800de03000033
:020000040000fa
:0400ec00de0300002f
:020000040000fa
:0400f000de0300002b
:020000040000fa
:0400f400de03000027
:020000040000fa
:0400f800de03000023
:020000040000fa
:0400fc00de0300001f
:020000040000fa
:04010000de0300001a
:020000040000fa
:04010400de03000016
:020000040000fa
:04010800de03000012
:020000040000fa
:04010c00de0300000e
:020000040000fa
:04011000de0300000a
:020000040000fa
:04011400de03000006
:020000040000fa
:04011800de03000002
:020000040000fa
:04011c00de030000fe
:020000040000fa
:04012000de030000fa
:020000040000fa
:04012400de030000f6
:020000040000fa
:04012800de030000f2
:020000040000fa
:04012c00de030000ee
:020000040000fa
:04013000de030000ea
:020000040000fa
:04013400de030000e6
:020000040000fa
:04013800de030000e2
:020000040000fa
:04013c00de030000de
:020000040000fa
:04014000de030000da
:020000040000fa
:04014400de030000d6
:020000040000fa
:04014800de030000d2
:020000040000fa
:04014c00de030000ce
:020000040000fa
:04015000de030000ca
:020000040000fa
:04015400de030000c6
:020000040000fa
:04015800de030000c2
:020000040000fa
:04015c00de030000be
:020000040000fa
:04016000de030000ba
:020000040000fa
:04016400de030000b6
:020000040000fa
:04016800de030000b2
:020000040000fa
:04016c00de030000ae
:020000040000fa
:04017000de030000aa
:020000040000fa
:04017400de030000a6
:020000040000fa
:04017800de030000a2
:020000040000fa
:04017c00de0300009e
:020000040000fa
:04018000de0300009a
:020000040000fa
:04018400de03000096
:020000040000fa
:04018800de03000092
:020000040000fa
:04018c00de0300008e
:020000040000fa
:04019000de0300008a
:020000040000fa
:04019400de03000086
:020000040000fa
:04019800de03000082
:020000040000fa
:04019c00de0300007e
:020000040000fa
:0401a000de0300007a
:020000040000fa
:0401a400de03000076
:020000040000fa
:0401a800de03000072
:020000040000fa
:0401ac00de0300006e
:020000040000fa
:0401b000de0300006a
:020000040000fa
:0401b400de03000066
:020000040000fa
:0401b800de03000062
:020000040000fa
:0401bc00de0300005e
:020000040000fa
:0401c000de0300005a
:020000040000fa
:0401c400de03000056
:020000040000fa
:0401c800de03000052
:020000040000fa
:0401cc00de0300004e
:020000040000fa
:0401d000de0300004a
:020000040000fa
:0401d400de03000046
:020000040000fa
:0401d800de03000042
:020000040000fa
:0401dc00de0300003e
:020000040000fa
:0401e000de0300003a
:020000040000fa
:0401e400de03000036
:020000040000fa
:0401e800de03000032
:020000040000fa
:0401ec00de0300002e
:020000040000fa
:0401f000de0300002a
:020000040000fa
:0401f400de03000026
:020000040000fa
:0401f800de03000022
:020000040000fa
:0401fc00de0300001e
:020000040000fa
:04020000de03000019
:020000040000fa
:04020400de03000015
:020000040000fa
:04020800de03000011
:020000040000fa
:04020c00de0300000d
:020000040000fa
:04021000de03000009
:020000040000fa
:04021400de03000005
:020000040000fa
:04021800de03000001
:020000040000fa
:04021c00de030000fd
:020000040000fa
:04022000de030000f9
:020000040000fa
:04022400de030000f5
:020000040000fa
:04022800de030000f1
:020000040000fa
:04022c00de030000ed
:020000040000fa
:04023000de030000e9
:020000040000fa
:04023400de030000e5
:020000040000fa
:04023800de030000e1
:020000040000fa
:04023c00de030000dd
:020000040000fa
:04024000de030000d9
:020000040000fa
:04024400de030000d5
:020000040000fa
:04024800de030000d1
:020000040000fa
:04024c00de030000cd
:020000040000fa
:04025000de030000c9
:020000040000fa
:04025400de030000c5
:020000040000fa
:04025800de030000c1
:020000040000fa
:04025c00de030000bd
:020000040000fa
:04026000de030000b9
:020000040000fa
:04026400de030000b5
:020000040000fa
:04026800de030000b1
:020000040000fa
:04026c00de030000ad
:020000040000fa
:04027000de030000a9
:020000040000fa
:04027400de030000a5
:020000040000fa
:04027800de030000a1
:020000040000fa
:04027c00de0300009d
:020000040000fa
:04028000de03000099
:020000040000fa
:10040000af1421000eff2c000e0188000000000038
:10041000000020000000e000020032000001200087
:100420002002880014000700e60007000000e0003a
:1004300003003a00803b2100010020000200370049
:100440000000200001002000810f70000100320038
:100450000f000700000020000000e0000200320052
:100460000000020000000000700702000000000011
:100470000040da000000fe00200020000000e00044
:1004800002003200100020009001880000000600e9
:10049000a1028800800478000000eb001f003700f4
:1004a000e284440054a0b4009905ba00e2844400f8
:1004b00054a0b4009906ba00e284440054a0b400e9
:1004c0000006eb00476fde00fd07b200ae018800ba
:1004d000636ce10003003a000ad801000000eb0061
:1004e0000e003700606ce10008003a00004deb00a0
:1004f0000a05e800020039003420ec000af0a000f0
:100500008b05e900f9ff3e00040037006168e10057
:10051000010032000086eb000b00070019c7ba008b
:100520000e04e0001905ba0003003a000a00e000da
:10053000dbff3a0000000600fe07b200ae028800b2
:100540008a047800f5ff37000cd0a300e20f4d00bd
:100550001c00390089027800354dba000a05e80010
:10056000020039003420ec000af0a0008b05e900fd
:100570000f003200254dba000a05e80002003900dc
:100580003420ec000af0a0008b05e90008003200de
:100590000c00e0000600320015cdba000a05e800a4
:1005a000020039003420ec000af0a0008b05e900bd
:1005b0008984e80054a0b4000b00e000e2ff3a0098
:1005c000000006009902ba00055d78008b05e9007d
:1005d000f7ff3200c82ade00055d78008b05e900d0
:1005e000f3ff32000c00e000f1ff320019ddba0029
:1005f000eeff37000000fa000108a9000080fa00b1
:10060000004006003600f800809fbe00829fbe00ba
:10061000849fbe00869fbe000000fa000068a9000b
:10062000c6050700a40707000080fa004f03be00bc
:100630004f02be004f01be004f00be003600f90061
:10064000004006003600f800809fbe00829fbe007a
:10065000849fbe00869fbe000000fa000368a900c8
:10066000108080002180800061004000e080480010
:100670001080880021808800ff0207000080fa00b7
:100680004f03be004f02be004f01be004f00be0030
:100690003600f90000400600801f78000000fa00d4
:1006a00001a8a90000188000f089880010188000b7
:1006b000008a880020188000108a88003018800086
:1006c000208a880040188000308a880010c0b3005b
:1006d00017f0b7000080fa004f00780000400600d5
:1006e0003600f800809fbe00829fbe00849fbe003f
:1006f000869fbe000000fa000188a90041808000aa
:1007000030808000808f5000020032000e0707000a
:10071000010037000a70ef000080fa004f03be00ae
:100720004f02be004f01be004f00be003600f90070
:10073000004006003600f800809fbe00829fbe0089
:10074000849fbe00869fbe000000fa000168a900d9
:1007500010118000640060000000e0000100320021
:100760002242a90010118000620060000000e00039
:10077000060032002222a900050037003011800057
:10078000004078005c07070001003700000000000f
:1007900010118000610060000000e000f7ff3a00e7
:1007a0000080fa004f03be004f02be004f01be00a2
:1007b0004f00be003600f900004006000040da009d
:1007c0000000fe000000050003f0a200889fbe00ac
:1007d0008a9fbe008c1f78001b0107002201330096
:1007e0006450e1004f0032006420e100520032000a
:1007f00003826c0007003b000905d0000306d0000f
:10080000820f54000c065d00020039000200320025
:1008100089017800030678008582550004003d00b8
:100820000003fd008103fd008502ea008b85420084
:10083000840f720002003b0060001000e08018008e
:100840006011b8000005eb007a28e1000a003900c9
:1008500006007800c75ddd00f707b20087807500ed
:100860002d003700828171000a0178006105600067
:100870008180d1000080d3008502e900f9ff3b00b0
:10088000060440008784480002003b006004140016
:10089000e0841c000988a300070032008a817100ef
:1008a00082817100610164008904d1000884d30051
:1008b0008b05e800170037000978a30013003a0001
:1008c0000b00e000130034008b05e900080444002d
:1008d00089844c000a4474000978a3000d003a0092
:1008e0000b00e000070034008b05e9000804440019
:1008f00089844c0001003a000b0020000978a30015
:10090000f7ff32000001eb00020037008281710026
:100910000a017800910007000cf0a70001f0a00088
:10092000da0037006420e10002003a00838f6c0097
:10093000da0033000801be000200be00d300370019
:10094000889fbe008a9fbe008c1f7800be000700f3
:10095000c500330003866c006450e1002e003200b5
:100960006420e100330032006150e1002f003200ca
:100970006120e1003100320085855500eb07b000b1
:100980000900200008042000050037000804440086
:1009900089844c000a0031000603430087834b0022
:1009a0000001530081815b00f8ff33000203be00a9
:1009b0000800a0000804440089844c00f6ff3900b8
:1009c000c639dd00830173000100320013002000ee
:1009d0008904d1000884d3000998a30005003200df
:1009e0000800a7000300a0008904d1000884d300f8
:1009f0008b05e8008904d1000884d3000001eb00d6
:100a00000281d2005500070001f0a1000cf0a70000
:100a100001f0a0009d0037006420e1009f0032003b
:100a20000801be000200be00f7ff37006120e100b0
:100a30009a0032006000b800f3ff37000000200089
:100a400001f82700f0ff370014002000ca0037002b
:100a5000f4ff2f00c80037000001be00650007004a
:100a60000470a70003f0a1006509b1001600320070
:100a70000d0035006828e10006003500f0ff2f006a
:100a8000f1ff27000300e00013003b0001002800f5
:100a90000000050000004000818048008502e90058
:100aa000fcff3a0008003700f88f420002003c00cb
:100ab0008000eb00000005008100d1000080d30021
:100ac0008502e800fcff3a000300e00002003b0062
:100ad00060001000e0801800000006000001be0069
:100ae000440007000470a70003f0a10003f8a3006e
:100af00013003a006509b10010003200090035000a
:100b00006928e1000200350001002800000005000e
:100b100000004000818048008502e900fcff3a00a7
:100b200000000600f88f4200050035008100d1006a
:100b30000080d3008502e800fcff3a0000000600b8
:100b40008000eb00000005004f89de008201780084
:100b5000a40037006011b800b20037008100200007
:100b6000618055000b003d000b00200061fe2f004e
:100b70000100e1001d003400828171006101640008
:100b80008904d1000884d3000000e800faff3a008d
:100b9000710020006100640003007000020060002a
:100ba0000900320061044400e0844c000988a5007b
:100bb000050032008b05e8006808e10002003a00f9
:100bc0008904d1000884d300f20f20000258e1000c
:100bd00005003d00c75ddd00f907b20089807500a2
:100be00008007800000006000bf827008b00780052
:100bf00000000500c70ade00f107b200f50fb200e1
:100c000008003200e1cf4200020032000170a00073
:100c100024000500810f7000010032000408050067
:100c200044000500810f700002003a001400050026
:100c30008502e9000000400081c04800fcff3b0045
:100c40000170a000240005000004be00e9ff0700b9
:100c50000003be000405be000200be00e5ff070061
:100c6000844f7500000006000200be006450e100e1
:100c7000050036006420e100020036000968a30088
:100c800001003a000800be000160a0004f06780095
:100c90004f05be004f04be0000000600f0ff2f000d
:100ca000f1ff2700f9ff3700889fbe008a9fbe0032
:100cb0008c1f7800e4ff0700ebff330003866c0015
:100cc0006450e100240032006420e100270032007b
:100cd0006150e100220032006120e1002100320079
:100ce0008b854200eb07b1000134b800003ab80030
:100cf0000804420089844a00013ab8000030b80074
:100d00008880400009014a000400330000004000d0
:100d100081804800020149008b05e900c909dd0016
:100d2000830170000100320013002000c814de00af
:100d30004814dd004709de001200b200c808de00da
:100d40000884700085ff070001f0a1000cf0a700e7
:100d500001f0a000cdff37006120e100cfff32009d
:100d60000801be000200be00f7ff37006150e1003d
:100d7000fcff3a00c9ff3700889fbe008a9fbe0073
:100d8000841f7800b0ff07004f0078001100330087
:100d9000f0ff2f00838f6c0006003b000405650008
:100da0000a00a7000800370009f0a6001000200084
:100db00008003700820f5400838f5c000300390065
:100dc0001000200001003e000000200009f0a700f4
:100dd0000000ea004f05be004f04be000000e00026
:100de00000000600881f7800030478000300e0007c
:100df00007003d0060001000e0801800600119004d
:100e0000e081190002003b0001f02d0003003700d3
:100e10000400070008f0a70001f0a0004f047800cc
:100e200000000600889fbe008a9fbe0000827000fe
:100e30000402710004827100260032000004be002a
:100e40000200be006011b8006b092000950220006e
:100e50000182cf000a0039000541b1000082cf00b5
:100e6000070039000541b1000982cf0004003900b4
:100e70000541b1000882cf00010039000541b100f1
:100e800005425200120032000a003b0082817100cc
:100e9000610164008100d1000080d3008984d30007
:100ea0000884d3008b05e8000442e800f7ff3a000d
:100eb000070037000804440089844c000000480003
:100ec000818048008b05e9000442e900f9ff3a00ff
:100ed00022ff07004f05be004f04be0000000600c1
:020000040000fa
:100ee0000a00fa00881f7800f60507004006070090
:100ef0005f02070077020700f5020700730307008f
:100f000033050700bb05070064cea90064eea90005
:100f1000254ea90001003700000000000000eb0092
:100f2000000f78000600370083050700004f980087
:100f30006800470011002000c70407001e0fe800ea
:100f4000970507009e0f5000f7ff3c00803e2000f1
:100f500001002000410607005f050700e14f500037
:100f6000edff3a0058050700100798005e050700de
:100f70001e0090000080e800100078008000eb0068
:100f8000f4fe0700323323003305240046ff070038
:100f9000020020000358240069fe0700d2cc2c0078
:100fa000c304240040ff0700200798003107980081
:100fb0002e019000be01900000002000812024003e
:100fc0005ffe070002002000030a2400fefd070068
:100fd00050898800618988001e00900064004000ec
:100fe000100078008000eb00dafe070032332300a7
:100ff000330524002cff07000200200003582400c2
:101000004ffe0700d2cc2c00c304240026ff0700ab
:1010100020079800310798002e019000be01900033
:10102000000020008120240045fe0700020020006f
:10103000030a2400e4fd0700708988008189880084
:101040001e00900068004000100078008000eb0057
:10105000c0fe0700323323003305240012ff0700cf
:10106000020020000358240035fe0700d2cc2c00db
:10107000c30424000cff07002007980031079800e4
:101080002e019000be01900000002000812024006d
:101090002bfe070002002000030a2400cafd0700ff
:1010a00090898800a18988001e00900010007800b7
:1010b0008000eb00a7fe0700323323003305240035
:1010c000f9fe070002002000035824001cfe070060
:1010d000d2cc2c00c3042400f3fe070020079800a4
:1010e000310798002e019000be0190000000200002
:1010f0008120240012fe070002002000030a2400c1
:10110000b1fd0700d0898800e18988001e009000a9
:1011100066004000100078008000eb008dfe0700a4
:101120003233230033052400dffe070002002000d5
:101130000358240002fe0700d2cc2c00c304240074
:10114000d9fe070020079800310798002e01900073
:10115000be0190000000200081202400f8fd07005f
:1011600002002000030a240097fd0700b0898800d0
:10117000c189880090898000a189800018c0b300cf
:1011800002002000031f24002ffe07000000e000e3
:10119000010035000044eb000804e0000b003a00b9
:1011a000b0898000c189800018c0b300020020000f
:1011b000031f240024fe07000000e00001003500aa
:1011c0000044eb000804e0000200320064cea800f6
:1011d0000100370064cea9007089800081898000f9
:1011e00018c0b30002002000031f240016fe0700f1
:1011f0000000e000010035000044eb000804e000be
:101200000200320064eea8000100370064eea9007d
:10121000508980006189800018c0b300020020005e
:10122000031f240008fe07000000e0000100350055
:101230000044eb000804e0000b003a00d089800075
:10124000e189800018c0b30002002000031f2400c1
:10125000fdfd07000000e000010035000044eb0048
:101260000804e00002003200254ea8002bff3700e2
:10127000254ea90029ff37000000fa000cd0bf005e
:101280000080fb00cf80de00520120000300200020
:10129000820f5000838f580091003e00000601002d
:1012a000150037001e0037002700370031003700d7
:1012b0003f00370048003700560037005f00370016
:1012c0006d00370077003700780037008200370064
:1012d000830037008200370081003700800037002c
:1012e00026003700300037003d0037004700370048
:1012f000540037005e0037000230ef000430ef008a
:101300000041eb006000b8003703070012c0b300d3
:101310006000b8003403070010c0b3000cf0b70041
:101320001280800023808000803e20000100200089
:10133000800f5100818f59006c00360020c0b3002f
:101340000cf0b7006a0037000041eb0000002000fd
:10135000011f24002403070012c0b3000000200076
:10136000011f24002003070030c0b3000cf0b700b9
:101370005f003700600007005d0037000041eb00b0
:1013800000002000011a24001703070012c0b30058
:1013900000002000011a24001303070010c1b3004d
:1013a0000cf0b70052003700530007005000370020
:1013b0000041eb0000002000011a24000a0307008e
:1013c00012c0b3006000b8000703070050c0b300ac
:1013d0000cf0b70046003700470007004400370014
:1013e0000041eb0000002000011a2400fe0207006b
:1013f00012c0b3000000200001122400fa0207000e
:1014000030c1b3000cf0b700390037003a000700d4
:10141000370037000041eb006000b800f20207001f
:1014200012c0b30000002000011a2400ee020700e1
:1014300070c0b3000cf0b7002d0037002e0007007d
:101440002b0037000041eb000000200001122400b7
:10145000e502070012c0b30000002000011a2400ba
:10146000e102070050c1b3000cf0b70020003700c4
:10147000210007001e0037000041eb0000002000a3
:1014800001172400d802070012c0b300000020009a
:1014900001172c00d402070090c0b3000cf0b70075
:1014a0001300370014000700110037000041eb0063
:1014b0000000200001172c00cb02070012c0b3006f
:1014c0000000200001172400c7020700b0c0b300cd
:1014d0000cf0b700060037000700070004003700d3
:1014e0000c70ef0000000000010037000000000059
:1014f0000080fa00000006000000fa00881f780053
:101500000e70ef00b0898000c189800018c0b30060
:1015100002002000031724004bfd07000000e0003c
:10152000010035000044eb000804e0000300320035
:101530000ed0bf000044a0000ef0b70090898000dc
:10154000a189800018c0b30002002000031f2400fe
:101550003dfd07000000e000010035000044eb0005
:101560000804e000030032000ed0bf000034a000e9
:101570000ef0b700708980008189800018c0b30028
:1015800002002000031f24002ffd07000000e000e0
:10159000010035000044eb000804e00003003200c5
:1015a0000ed0bf000024a0000ef0b70050898000cc
:1015b0006189800018c0b30002002000031f2400ce
:1015c00021fd07000000e000010035000044eb00b1
:1015d0000804e000030032000ed0bf000014a00099
:1015e0000ef0b700d0898000e189800018c0b300f8
:1015f000020020000317240013fd07000000e00094
:10160000010035000044eb000804e0000300320054
:101610000ed0bf000004a0000ef0b7000ed0bf0037
:101620000080fb00cf80de00f201200003002000dc
:10163000820f5000838f580081003e000006010099
:101640001f00370021003700230037002500370036
:1016500027003700290037002b0037002d00370006
:101660002f003700310037003300370035003700d6
:1016700037003700390037003b0037003d003700a6
:101680003f00370041003700430037004500370076
:1016900047003700490037004b0037004d00370046
:1016a0004f00370051003700530037005500370016
:1016b00057003700590037005b0037005d003700e6
:1016c00020c0b3000df0b7005d00370020c1b300ab
:1016d0000df0b7005a00370040c0b3000df0b7005e
:1016e0005700370040c0b3000df0b700540037007a
:1016f00080c0b3000df0b7005100370080c0b300c8
:101700000df0b7004e00370080c0b3000df0b700f9
:101710004b00370080c0b3000df0b7004800370021
:1017200060c0b3000df0b7004500370080c0b300c3
:101730000df0b7004200370080c0b3000df0b700d5
:101740003f00370080c0b3000df0b7003c00370009
:10175000a0c0b3000df0b7003900370080c0b3005f
:101760000df0b7003600370080c0b3000df0b700b1
:101770003300370080c0b3000df0b70030003700f1
:1017800040c1b3000df0b7002d00370000c1b30019
:101790000df0b7002a003700a0c0b3000df0b7006d
:1017a0002700370080c0b3000df0b70024003700d9
:1017b000a0c0b3000df0b7002100370080c0b30017
:1017c0000df0b7001e003700a0c0b3000df0b70049
:1017d0001b00370080c0b3000df0b70018003700c1
:1017e00060c0b3000df0b7001500370080c0b30033
:1017f0000df0b70012003700a0c0b3000df0b70025
:101800000f00370080c0b3000df0b7000c003700a8
:10181000a0c0b3000df0b7000900370080c0b300ce
:101820000df0b70006003700a0c0b3000df0b70000
:101830000300370080c0b3000df0b70000000000c7
:101840000dd0bf008080fb000cd0bf000080fb00eb
:101850000000e900808f5000020032000dd0bf0070
:101860000cf0b7004f0478000080fa00000006007a
:101870000000fa0013e1a90011e1a9001061a8001d
:101880001021a90081088000f0fc2f00008060007a
:10189000800888000a21ef000621ef00404c20005c
:1018a0007008880000402b006008880021428000fa
:1018b00080ff2f00008060000000a0002042880010
:1018c0000108a9002108a80011e1a8000080fa0081
:1018d000000006000000fa0000002000a1372400ec
:1018e0000700070005e1a9000421a9000068a9007c
:1018f0002068a80005e1a8000080fa0000000600aa
:101900000400fa00881f7800008fbe0021088000c4
:10191000f0fc2f0000806000200888001e01780085
:101920009e0190000068290081c1240004fc07008a
:1019300018c0b30002f02f00f377240044fc070026
:101940000000e00001003c000044eb000804e0005f
:101950005400320021088000f0fc2f00008060005d
:101960000040a000200888001e0178009e01900021
:101970000068290081c12400f1fb0700020020005b
:1019800003102400eefb070018c0b30002f02f0084
:10199000f37724002efc07000000e00001003c006b
:1019a0000044eb000804e00032003200210880000f
:1019b000f0fc2f00008060000050a000200888008c
:1019c0001e0178009e0190000068290081c124005a
:1019d000dbfb07000200200003282400d8fb0700df
:1019e00018c0b30002f02f00f377240018fc0700a2
:1019f0000000e00001003c000044eb000804e000af
:101a00001000320021088000000320000100700057
:101a1000200888001e0178009e01900000682900bf
:101a200081c12400c6fb0700020020000338240007
:101a3000c3fb070008fc07000000780010088800be
:101a4000200037001e0178009e01900000682900e8
:101a500081c12400bafb07000200200003282400f3
:101a6000b7fb0700fcfb07000000780010088800a7
:101a7000140037001e0178009e01900000682900c4
:101a800081c12400aefb07000200200003102400e7
:101a9000abfb0700f0fb070000007800100888008f
:101aa000080037001e0178009e01900000682900a0
:101ab00081c12400a2fb0700e7fb070000007800bb
:101ac000100888004f0478000080fa00000006002b
:101ad0000000fa0000002000a147240007000700d2
:101ae0001fe1a9001e21a9000368a9002368a8001e
:101af0001fe1a8000080fa00000006000400fa00c0
:101b0000881f7800008fbe00f1088000f0fc2f00d5
:101b100000806000f00888001e0178009e0190009f
:101b20000068290081c1240085fb070018c0b300ac
:101b300002f02f00f3772400c5fb07000000e0004f
:101b400001003c000044eb000804e00054003200b7
:101b5000f1088000f0fc2f00008060000040a00031
:101b6000f00888001e0178009e019000006829009e
:101b700081c1240072fb0700020020000310240032
:101b80006ffb070018c0b30002f02f00f3772400aa
:101b9000affb07000000e00001003c000044eb0048
:101ba0000804e00032003200f1088000f0fc2f0051
:101bb000008060000050a000f00888001e0178003e
:101bc0009e0190000068290081c124005cfb070091
:101bd000020020000328240059fb070018c0b300ae
:101be00002f02f00f377240099fb07000000e000cb
:101bf00001003c000044eb000804e000100032004b
:101c0000f10880000003200001007000f008880047
:101c10001e0178009e0190000068290081c1240007
:101c200047fb0700020020000338240044fb0700a4
:101c300089fb070000007800d008880020003700ea
:101c40001e0178009e0190000068290081c12400d7
:101c50003bfb0700020020000328240038fb07009c
:101c60007dfb070000007800d008880014003700d2
:101c70001e0178009e0190000068290081c12400a7
:101c80002ffb070002002000031024002cfb07009c
:101c900071fb070000007800d008880008003700ba
:101ca0001e0178009e0190000068290081c1240077
:101cb00023fb070068fb070000007800d0088800bd
:101cc0004f0478000080fa00000006000000fa00cf
:101cd0001160800080ff2f0000806000106088008d
:101ce00000fa20002060880023aca800238ca80004
:101cf00011618000f03f2f000080600000a0a00074
:101d0000106188003000200020618800c3aca8006a
:101d1000c38ca80011668000f03f2f000080600097
:101d200000a0a00010668800300020002066880017
:101d300001eca8000080fa00000006000000fa0094
:101d4000889fbe008a9fbe0034898000458980003c
:101d5000108980002189800018c0b3000001be00f6
:101d60000400be0038fb07000000e0000100350061
:101d70000044eb000804e0000f00320018898000e6
:101d8000298980003a8980004b89800014d0bf00e7
:101d90000080fb00cf80de006bfb07000001be006f
:101da0000a00be0089fa07000801be00d100070042
:101db0003089880041898800348980004589800005
:101dc000108980002189800018c0b3000001be0086
:101dd0000400be001efb07000000e00001003c0004
:101de0000044eb000804e0000f0032001889800076
:101df000298980003a8980004b89800014d0bf0077
:101e00000080fb00cf80de004ffb07000001be001a
:101e10000a00be006cfa07000801be009d00070022
:101e2000308988004189880030898000418980009c
:101e300018c0b3006011b80005fb07000000e00007
:101e400001003c000044eb000804e0000400320004
:101e5000c3cca90024eea800c3eca80003003700ff
:101e6000c3eca90024cea800c3cca8003089800010
:101e70004189800071000700020020000322240035
:101e800089fb070015fb070000007800306688001a
:101e9000f488800005898000d0888000e188800077
:101ea00018c0b3000001be000400be00e6fa07003f
:101eb0000000e000010035000044eb000804e000f1
:101ec0000f003200d8888000e9888000fa888000fe
:101ed0000b89800014d0bf000080fb00cf80de00a3
:101ee00019fb07000001be000a00be0037fa070018
:101ef0000801be007f000700f08888000189880083
:101f0000f488800005898000d0888000e188800006
:101f100018c0b3000001be000400be00ccfa0700e8
:101f20000000e00001003c000044eb000804e00079
:101f30000f003200d8888000e9888000fa8880008d
:101f40000b89800014d0bf000080fb00cf80de0032
:101f5000fdfa07000001be000a00be001afa0700e1
:101f60000801be004b000700f08888000189880046
:101f7000f08880000189800018c0b3006011b800ab
:101f8000b3fa07000000e00001003c000044eb0051
:101f90000804e0000400320023cca90015eea800dc
:101fa00023eca8000300370023eca90015cea800fd
:101fb00023cca800f0888000018980001f00070062
:101fc000020020000322240037fb0700c3fa0700a9
:101fd00000007800306188004f05be004f04be004d
:101fe0000080fa00000006000600fa00008fbe0024
:101ff000424798004e409000e14f500005003a00e3
:102000001e0178009e019000d2888800e388880035
:10201000080037004e4090000004e00005003a0040
:102020001e0078009e00900001f0a2001089880038
:10203000218988000080fa00000006000400fa00f0
:10204000881f7800008fbe0018c0b3006011b80070
:102050001e0078009e0090007dfa07000000e0005e
:1020600001003d000044eb000804e00003003200e2
:102070001e0078009e009000030037001e007800cc
:102080009e00900001f0a2004f0478000080fa004a
:10209000000006000800fa00881f7800008fbe00cc
:1020a000220798003307980018c0b3002e01900053
:1020b000be0190001e0078009e00900064fa0700a8
:1020c0000000e00001003c000044eb000804e000d8
:1020d000030032001e0078009e00900002003700ce
:1020e0002e009000be0090004f0478000080fa009f
:1020f000000006000800fa00881f7800008fbe006c
:10210000220798003307980018c0b3002e019000f2
:10211000be0190001e0078009e0090004afa070061
:102120000000e000010035000044eb000804e0007e
:10213000030032001e0078009e009000020037006d
:102140002e009000be0090004f0478000080fa003e
:10215000000006000c00fa00881f7800008fbe0007
:102160002207980033079800440798005507980005
:1021700018c0b3004e019000de0190001e007800f0
:102180009e00900032fa07000000e00001003c00d1
:102190000044eb000804e000040032004e0190000f
:1021a000de019000028fbe000e00370018c0b300a1
:1021b0002e019000be0190001e0078009e0090004d
:1021c00021fa07000000e000010035000044eb00a8
:1021d0000804e000030032002e019000be019000d0
:1021e000028fbe001e0078009e0090004f04780011
:1021f0000080fa00000006000400fa00008fbe0014
:10220000b2fd2000930424001e0078009e00900080
:10221000cbf907000200200043332400a2fa070094
:102220000080fa00000006000400fa00008fbe00e3
:10223000b2fd2000930424001e0078009e00900050
:1022400099fa07000200200043332400bcf907007c
:102250000080fa00000006000600fa00100798004f
:10226000210798000040eb00004f78005200070063
:10227000ae009000810f50000d0034000040eb00d4
:10228000004f7800060037001e80fb009e00900083
:1022900000804000104078000b0007001e4fe8004f
:1022a0009e80fb002e009000808f5000f6ff3500ce
:1022b0002e0007000004e00001003a0022000700a1
:1022c0000080fa00000006000200fa00004f7800cb
:1022d0003080800081012100008040001e4878008d
:1022e000308080000000e80030808800318080006d
:1022f000f0072000808f5000010034000630ef000e
:102300000080fa00000006000200fa004080800011
:102310008101210000804000104f78004080800043
:102320000000e8004080880041808000f007200025
:10233000808f5000010034000830ef001e4078000c
:102340000080fa00000006000200fa0010c0b3008e
:102350000af0b700ecff0700004f78001e80fb007a
:10236000201188000080fa00000006000000fa003a
:102370000ad0bf000080fa00000006000000fa004a
:102380003180800040808000808f50000400350044
:1023900031808000408080000080500004003700c1
:1023a0003180800040808000008050000008b00034
:1023b0000080fa00000006000000fa00efff0700ae
:1023c00001082000008050000080fa000000060094
:1023d0000000fa0021e3a9002143a80001198000b0
:1023e000f0cf2f0000806000001988002043a90072
:1023f00001198000000e2000010070000019880003
:1024000011198000f0ff2100008060001019880081
:102410002343a80011198000f0cf2f000080600036
:10242000101988001119800030f82f00008060001a
:102430000040a000101988002203a9002223a9004f
:1024400025e3a900f0c0b30024e3b7002119800000
:10245000f00f2e008080600000f02000010070006e
:10246000201988003303a9002e0ea8002f6ea800a3
:102470006f2ea8001e2ea8004feea80030c3a800a3
:102480003163a8002e03a8003063a80031e3a80040
:102490004119800000fc2f00008060004019880076
:1024a00028e3a90001a8a90021a8a80021e3a80009
:1024b0000080fa00000006000000fa002023a800b7
:1024c0000080fa00000006000000fa00e01321007e
:1024d0000080fa00000006000000fa0017d0bf00dc
:1024e0000080fa00000006000000fa001770ef00fc
:1024f0000080fa00000006000200fa00004f780099
:102500008080800081092100008040001e48780002
:10251000808080000000e80080808800818080004a
:10252000f0072000808f5000010034001030ef00d1
:102530000080fa00000006000200fa00908080008f
:102540008109210000804000104f780090808000b9
:102550000000e8009080880091808000f007200053
:10256000808f5000010034001230ef001e407800d0
:102570000080fa00000006000000fa008180800060
:1025800090808000808f50000200320010c0b300a5
:10259000010037000040eb000080fa000000060058
:1025a0000000fa008180800090808000808f5000c1
:1025b0000400350081808000908080000080500001
:1025c00004003700818080009080800000805000ef
:1025d0000008b0000080fa00000006000000fa00c9
:1025e000efff070001082000008050000080fa0083
:1025f000000006000000fa002002a900011180007e
:1026000090ff2f00008060000011880020a2a90028
:102610002062a800500520004011880023a2a900d4
:1026200023e2a9000188a9002188a80011118000d7
:10263000f0f32f0000806000101188000168a900ed
:102640002168a80021e2a8002342a8000080fa0027
:10265000000006000600fa00100798002107980005
:102660000040eb00004f78000040eb00004f780086
:102670000e00370000000000111180000020200033
:10268000008060000000e000fbff3a001e009000a8
:10269000104078000080fb00201188001e00900090
:1026a0000000e800100798001e4fe8009e80fb0025
:1026b0002e009000808f5000eeff35000080fa0061
:1026c000000006000000fa00f0032000303a880005
:1026d000213a8000f0f32f0000806000203a88004b
:1026e000213a800000fe2f00008060000000a00062
:1026f000203a88001200200080072000a109200055
:10270000337420008049780081497800824978003c
:10271000103a8000000178000200a0006004200050
:1027200071052000237420008049780081497800d9
:102730008249780000000000113a80000000270064
:102740008080600000002100808f5000faff3a0076
:1027500000000000113a80000002200000806000ac
:102760000000e000fbff32000080fa0000000600dd
:020000040000fa
:102770000c100000040000008000000000100000a9
:102780000600000080000000181100002600000074
:102790008000000014100000020000008200000011
:1027a000050000003e1100000c0000008000000049
:1027b0001610000002000000800000001810000049
:1027c00080000000800000000610000006000000ed
:1027d00080000000981000008000000080000000d1
:1027e0001010000004000000800000000000000045
:020000040000fa
:1027f0000000fa000e2eef001e2eef002e2eef002e
:102800003e2eef004e2eef005e2eef006e2eef00fc
:10281000214ea90060cea90060eea90011cea9004a
:1028200011eea90020cea90020eea90021368000db
:1028300000f82f00008060008001b300203688007f
:102840001134800000fc2f00008060000000a00018
:0c285000103488000080fa000000060030
:020000040000fa
:10285c00f03fb1000180b10006003500ee03090025
:10286c0000000000403fb1000180b100fbff3d00c3
:10287c001000b000203fb0000200350000800900bd
:08288c0000000000000006003e
:020000040000fa
:02000004000af0
:04afe000cfff00009f
:020000040000fa
:02000004000af0
:04afe400ffff00006b
:020000040000fa
:02000004000af0
:04afe8007fff0000e7
:020000040000fa
:02000004000af0
:04afec005fff000003
:020000040000fa
:02000004000af0
:04aff00038ff000026
:020000040000fa
:02000004000af0
:04aff400ffff00005b
:00000001FF
