:020000040000fa
:080000000002040000000000f2
:020000040000fa
:040008007e03000073
:020000040000fa
:04000c007e0300006f
:020000040000fa
:040010007e0300006b
:020000040000fa
:040014007e03000067
:020000040000fa
:040018007e03000063
:020000040000fa
:04001c007e0300005f
:020000040000fa
:040020007e0300005b
:020000040000fa
:040024007e03000057
:020000040000fa
:040028007e03000053
:020000040000fa
:04002c007e0300004f
:020000040000fa
:040030007e0300004b
:020000040000fa
:040034003c03000089
:020000040000fa
:040038007e03000043
:020000040000fa
:04003c007e0300003f
:020000040000fa
:040040007e0300003b
:020000040000fa
:040044007e03000037
:020000040000fa
:04004800fa020000b8
:020000040000fa
:04004c007e0300002f
:020000040000fa
:040050007e0300002b
:020000040000fa
:040054007e03000027
:020000040000fa
:040058007e03000023
:020000040000fa
:04005c005c03000041
:020000040000fa
:040060007e0300001b
:020000040000fa
:040064007e03000017
:020000040000fa
:040068007e03000013
:020000040000fa
:04006c007e0300000f
:020000040000fa
:040070007e0300000b
:020000040000fa
:040074007e03000007
:020000040000fa
:040078007e03000003
:020000040000fa
:04007c007e030000ff
:020000040000fa
:040080007e030000fb
:020000040000fa
:040084007e030000f7
:020000040000fa
:040088007e030000f3
:020000040000fa
:04008c007e030000ef
:020000040000fa
:040090007e030000eb
:020000040000fa
:040094007e030000e7
:020000040000fa
:040098007e030000e3
:020000040000fa
:04009c007e030000df
:020000040000fa
:0400a0007e030000db
:020000040000fa
:0400a4007e030000d7
:020000040000fa
:0400a8007e030000d3
:020000040000fa
:0400ac007e030000cf
:020000040000fa
:0400b0007e030000cb
:020000040000fa
:0400b4007e030000c7
:020000040000fa
:0400b8007e030000c3
:020000040000fa
:0400bc007e030000bf
:020000040000fa
:0400c0007e030000bb
:020000040000fa
:0400c4007e030000b7
:020000040000fa
:0400c8007e030000b3
:020000040000fa
:0400cc007e030000af
:020000040000fa
:0400d0007e030000ab
:020000040000fa
:0400d4007e030000a7
:020000040000fa
:0400d8007e030000a3
:020000040000fa
:0400dc007e0300009f
:020000040000fa
:0400e0007e0300009b
:020000040000fa
:0400e4007e03000097
:020000040000fa
:0400e8007e03000093
:020000040000fa
:0400ec007e0300008f
:020000040000fa
:0400f0007e0300008b
:020000040000fa
:0400f4007e03000087
:020000040000fa
:0400f8007e03000083
:020000040000fa
:0400fc007e0300007f
:020000040000fa
:040100007e0300007a
:020000040000fa
:040104007e03000076
:020000040000fa
:040108007e03000072
:020000040000fa
:04010c007e0300006e
:020000040000fa
:040110007e0300006a
:020000040000fa
:040114007e03000066
:020000040000fa
:040118007e03000062
:020000040000fa
:04011c007e0300005e
:020000040000fa
:040120007e0300005a
:020000040000fa
:040124007e03000056
:020000040000fa
:040128007e03000052
:020000040000fa
:04012c007e0300004e
:020000040000fa
:040130007e0300004a
:020000040000fa
:040134007e03000046
:020000040000fa
:040138007e03000042
:020000040000fa
:04013c007e0300003e
:020000040000fa
:040140007e0300003a
:020000040000fa
:040144007e03000036
:020000040000fa
:040148007e03000032
:020000040000fa
:04014c007e0300002e
:020000040000fa
:040150007e0300002a
:020000040000fa
:040154007e03000026
:020000040000fa
:040158007e03000022
:020000040000fa
:04015c007e0300001e
:020000040000fa
:040160007e0300001a
:020000040000fa
:040164007e03000016
:020000040000fa
:040168007e03000012
:020000040000fa
:04016c007e0300000e
:020000040000fa
:040170007e0300000a
:020000040000fa
:040174007e03000006
:020000040000fa
:040178007e03000002
:020000040000fa
:04017c007e030000fe
:020000040000fa
:040180007e030000fa
:020000040000fa
:040184007e030000f6
:020000040000fa
:040188007e030000f2
:020000040000fa
:04018c007e030000ee
:020000040000fa
:040190007e030000ea
:020000040000fa
:040194007e030000e6
:020000040000fa
:040198007e030000e2
:020000040000fa
:04019c007e030000de
:020000040000fa
:0401a0007e030000da
:020000040000fa
:0401a4007e030000d6
:020000040000fa
:0401a8007e030000d2
:020000040000fa
:0401ac007e030000ce
:020000040000fa
:0401b0007e030000ca
:020000040000fa
:0401b4007e030000c6
:020000040000fa
:0401b8007e030000c2
:020000040000fa
:0401bc007e030000be
:020000040000fa
:0401c0007e030000ba
:020000040000fa
:0401c4007e030000b6
:020000040000fa
:0401c8007e030000b2
:020000040000fa
:0401cc007e030000ae
:020000040000fa
:0401d0007e030000aa
:020000040000fa
:0401d4007e030000a6
:020000040000fa
:0401d8007e030000a2
:020000040000fa
:0401dc007e0300009e
:020000040000fa
:0401e0007e0300009a
:020000040000fa
:0401e4007e03000096
:020000040000fa
:0401e8007e03000092
:020000040000fa
:0401ec007e0300008e
:020000040000fa
:0401f0007e0300008a
:020000040000fa
:0401f4007e03000086
:020000040000fa
:0401f8007e03000082
:020000040000fa
:0401fc007e0300007e
:020000040000fa
:040200007e03000079
:020000040000fa
:040204007e03000075
:020000040000fa
:040208007e03000071
:020000040000fa
:04020c007e0300006d
:020000040000fa
:040210007e03000069
:020000040000fa
:040214007e03000065
:020000040000fa
:040218007e03000061
:020000040000fa
:04021c007e0300005d
:020000040000fa
:040220007e03000059
:020000040000fa
:040224007e03000055
:020000040000fa
:040228007e03000051
:020000040000fa
:04022c007e0300004d
:020000040000fa
:040230007e03000049
:020000040000fa
:040234007e03000045
:020000040000fa
:040238007e03000041
:020000040000fa
:04023c007e0300003d
:020000040000fa
:040240007e03000039
:020000040000fa
:040244007e03000035
:020000040000fa
:040248007e03000031
:020000040000fa
:04024c007e0300002d
:020000040000fa
:040250007e03000029
:020000040000fa
:040254007e03000025
:020000040000fa
:040258007e03000021
:020000040000fa
:04025c007e0300001d
:020000040000fa
:040260007e03000019
:020000040000fa
:040264007e03000015
:020000040000fa
:040268007e03000011
:020000040000fa
:04026c007e0300000d
:020000040000fa
:040270007e03000009
:020000040000fa
:040274007e03000005
:020000040000fa
:040278007e03000001
:020000040000fa
:04027c007e030000fd
:020000040000fa
:040280007e030000f9
:020000040000fa
:10040000ef0221000eff2c000e018800000000000a
:10041000000020000000e000020032000001200087
:100420002002880014000700b60007000000e0006a
:1004300003003a00e0c12000010020000200370064
:100440000000200001002000810f70000100320038
:100450000f000700000020000000e0000200320052
:1004600000000200000000008408020000000000fc
:100470000040da000000fe00200020000000e00044
:1004800002003200100020009001880000000600e9
:10049000a1028800800478000000eb001f003700f4
:1004a000e284440054a0b4009905ba00e2844400f8
:1004b00054a0b4009906ba00e284440054a0b400e9
:1004c0000006eb00476fde00fd07b200ae018800ba
:1004d000636ce10003003a000ad801000000eb0061
:1004e0000e003700606ce10008003a00004deb00a0
:1004f0000a05e800020039003420ec000af0a000f0
:100500008b05e900f9ff3e00040037006168e10057
:10051000010032000086eb000b00070019c7ba008b
:100520000e04e0001905ba0003003a000a00e000da
:10053000dbff3a0000000600fe07b200ae028800b2
:100540008a047800f5ff37000cd0a300e20f4d00bd
:100550001c00390089027800354dba000a05e80010
:10056000020039003420ec000af0a0008b05e900fd
:100570000f003200254dba000a05e80002003900dc
:100580003420ec000af0a0008b05e90008003200de
:100590000c00e0000600320015cdba000a05e800a4
:1005a000020039003420ec000af0a0008b05e900bd
:1005b0008984e80054a0b4000b00e000e2ff3a0098
:1005c000000006009902ba00055d78008b05e9007d
:1005d000f7ff3200c82ade00055d78008b05e900d0
:1005e000f3ff32000c00e000f1ff320019ddba0029
:1005f000eeff37003600f800809fbe00829fbe00ed
:10060000849fbe00869fbe000000fa000108a9007a
:100610000cd0bf000004e00009003a000041eb00ec
:100620006000b800a402070012c0b3006000b80068
:10063000a102070010c0b3000cf0b700070037009c
:100640000041eb006000b8009b02070012c0b3003d
:100650006000b800980207000c70ef000080fa00fc
:100660004f03be004f02be004f01be004f00be0050
:100670003600f900004006003600f800809fbe00fa
:10068000829fbe00849fbe00869fbe000000fa00cd
:100690000068a900dd010700f50307000080fa00eb
:1006a0004f03be004f02be004f01be004f00be0010
:1006b0003600f90000400600809fbe000000fa00ee
:1006c00001a8a9000118800020002100010878007d
:1006d00011188000200021001100980021188000ce
:1006e000200021002100980010c0b3000af0b700dc
:1006f0000080fa004f00be00004006000040da0013
:100700000000fe000000050003f0a200889fbe006c
:100710008a9fbe008c1f7800fa0007000101330099
:100720006450e1004f0032006420e10052003200ca
:1007300003826c0007003b000905d0000306d000cf
:10074000820f54000c065d000200390002003200e6
:1007500089017800030678008582550004003d0079
:100760000003fd008103fd008502ea008b85420045
:10077000840f720002003b0060001000e08018004f
:100780006011b8000005eb007a28e1000a0039008a
:1007900006007800c75ddd00f707b20087807500ae
:1007a0002d003700828171000a0178006105600028
:1007b0008180d1000080d3008502e900f9ff3b0071
:1007c000060440008784480002003b0060041400d7
:1007d000e0841c000988a300070032008a817100b0
:1007e00082817100610164008904d1000884d30012
:1007f0008b05e800170037000978a30013003a00c2
:100800000b00e000130034008b05e90008044400ed
:1008100089844c000a4474000978a3000d003a0052
:100820000b00e000070034008b05e90008044400d9
:1008300089844c0001003a000b0020000978a300d5
:10084000f7ff32000001eb000200370082817100e7
:100850000a017800700007000cf0a70001f0a0006a
:10086000b90037006420e10002003a00838f6c0079
:10087000b90033000801be000200be00b20037001c
:10088000889fbe008a9fbe008c1f78009d000700d5
:10089000a400330003866c006450e1002e00320097
:1008a0006420e100330032006150e1002f0032008b
:1008b0006120e1003100320085855500eb07b00072
:1008c0000900200008042000050037000804440047
:1008d00089844c000a0031000603430087834b00e3
:1008e0000001530081815b00f8ff33000203be006a
:1008f0000800a0000804440089844c00f6ff390079
:10090000c639dd00830173000100320013002000ae
:100910008904d1000884d3000998a300050032009f
:100920000800a7000300a0008904d1000884d300b8
:100930008b05e8008904d1000884d3000001eb0096
:100940000281d2003400070001f0a1000cf0a700e2
:1009500001f0a0007c0037006420e1007e0032003e
:100960000801be000200be00f7ff37006120e10071
:10097000790032006000b800f3ff3700000020006b
:1009800001f82700f0ff370014002000a90037000d
:10099000f4ff2f00a70037000001be00440007004d
:1009a0000470a70003f0a10003f8a30013003a00ad
:1009b0006509b10010003200090035006928e10026
:1009c0000200350001002800000005000000400082
:1009d000818048008502e900fcff3a000000060023
:1009e000f88f4200050035008100d1000080d3005f
:1009f0008502e800fcff3a00000006008000eb00e2
:100a0000000005004f89de0082017800a400370055
:100a10006011b800b20037008100200061805500ed
:100a20000b003d000b00200061fe2f000100e100e3
:100a30001d00340082817100610164008904d100cd
:100a40000884d3000000e800faff3a00710020009b
:100a500061006400030070000200600009003200c1
:100a600061044400e0844c000988a50005003200c0
:100a70008b05e8006808e10002003a008904d10013
:100a80000884d300f20f20000258e10005003d0069
:100a9000c75ddd00f907b2008980750008007800a5
:100aa000000006000bf827008b007800000005000e
:100ab000c70ade00f107b200f50fb20008003200ed
:100ac000e1cf4200020032000170a00024000500c6
:100ad000810f700001003200040805004400050089
:100ae000810f700002003a00140005008502e90041
:100af0000000400081c04800fcff3b000170a000e6
:100b0000240005000004be00e9ff07000003be004a
:100b10000405be000200be00e5ff0700844f75001b
:100b2000000006000200be006450e100050036002f
:100b30006420e100020036000968a30001003a00c9
:100b40000800be000160a0004f0678004f05be00ff
:100b50004f04be0000000600f0ff2f00f1ff270049
:100b6000f9ff3700889fbe008a9fbe008c1f780067
:100b7000e4ff0700ebff330003866c006450e100e4
:100b8000240032006420e100270032006150e100bf
:100b9000220032006120e100210032008b854200fa
:100ba000eb07b1000134b800003ab8000804420075
:100bb00089844a00013ab8000030b80088804000bb
:100bc00009014a0004003300000040008180480011
:100bd000020149008b05e900c909dd0083017000ad
:100be0000100320013002000c814de004814dd00ac
:100bf0004709de001200b200c808de000884700059
:100c000085ff070001f0a1000cf0a70001f0a00093
:100c1000cdff37006120e100cfff32000801be00a8
:100c20000200be00f7ff37006150e100fcff3a0010
:100c3000c9ff3700889fbe008a9fbe00841f7800ce
:100c4000b0ff07004f00780011003300f0ff2f00c5
:100c5000838f6c0006003b00040565000a00a700b6
:100c60000800370009f0a600100020000800370037
:100c7000820f5400838f5c000300390010002000b5
:100c800001003e000000200009f0a7000000ea007b
:100c90004f05be004f04be000000e000000006004b
:100ca000881f7800030478000300e00007003d007f
:100cb00060001000e080180060011900e081190058
:100cc00002003b0001f02d00030037000400070084
:100cd00008f0a70001f0a0004f0478000000060013
:100ce000889fbe008a9fbe000082700004027100cf
:100cf00004827100260032000004be000200be0023
:100d00006011b8006b092000950220000182cf001d
:100d10000a0039000541b1000082cf000700390008
:100d20000541b1000982cf00040039000541b1003e
:100d30000882cf00010039000541b1000542520090
:100d4000120032000a003b008281710061016400e0
:100d50008100d1000080d3008984d3000884d300af
:100d60008b05e8000442e800f7ff3a00070037006f
:100d70000804440089844c00000048008180480039
:100d80008b05e9000442e900f9ff3a0022ff070061
:0c0d90004f05be004f04be00000006002e
:020000040000fa
:100d9c000000fa001160800080ff2f0000806000ce
:100dac001060880000fa20002060880023aca800a6
:100dbc00238ca80011618000f03f2f0000806000a0
:100dcc0000a0a00010618800300020002061880085
:100ddc00c3aca800c38ca80011668000f03f2f00a4
:100dec000080600000a0a000106688003000200089
:100dfc002066880001eca8000080fa0000000600c4
:100e0c000000fa00889fbe008a9fbe00f48080001c
:100e1c0005818000d0808000e180800018c0b30084
:100e2c000001be000400be00d4fe07000000e0007c
:100e3c00010035000044eb000804e0000f00320014
:100e4c00d8808000e9808000fa8080000b818000cf
:100e5c000ed0bf000080fb00cf80de00e6fe070056
:100e6c000001be000a00be0025fe07000801be00fe
:100e7c006d010700f080880001818800f4808000fb
:100e8c0005818000d0808000e180800018c0b30014
:100e9c000001be000400be00bafe07000000e00026
:100eac0001003c000044eb000804e0000f0032009d
:100ebc00d8808000e9808000fa8080000b8180005f
:100ecc000ed0bf000080fb00cf80de00cafe070002
:100edc000001be000a00be0008fe07000801be00ab
:100eec0039010700f080880001818800f0808000c3
:100efc000181800018c0b3006011b800a1fe07008a
:100f0c000000e00001003c000044eb000804e0009d
:100f1c0004003200c3cca90024eea800c3eca80046
:100f2c0003003700c3eca90024cea800c3cca80052
:100f3c00f0808000018180000d010700020020007c
:100f4c000322240004ff070090fe07000000780035
:100f5c0030668800b4808000c5808000908080005e
:100f6c00a180800018c0b3000001be000400be00c8
:100f7c0082fe07000000e000010035000044eb0099
:100f8c000804e0000f00320098808000a9808000e7
:100f9c00ba808000cb8080000ed0bf000080fb00a8
:100fac00cf80de0094fe07000001be000a00be00e8
:100fbc00d3fd07000801be001b010700b0808800ac
:100fcc00c1808800b4808000c58080009080800043
:100fdc00a180800018c0b3000001be000400be0058
:100fec0068fe07000000e00001003c000044eb003c
:100ffc000804e0000f00320098808000a980800077
:10100c00ba808000cb8080000ed0bf000080fb0037
:10101c00cf80de0078fe07000001be000a00be0093
:10102c00b6fd07000801be00e7000700b08088008d
:10103c00c1808800b0808000c180800018c0b300df
:10104c006011b8004ffe07000000e00001003c00fa
:10105c000044eb000804e0000400320023cca9009b
:10106c0015eea80023eca8000300370023eca90020
:10107c0015cea80023cca800b0808000c1808000d1
:10108c00bb0007000200200003222400b2fe070070
:10109c003efe070000007800306188004f05be005e
:1010ac004f04be000080fa00000006000600fa00a3
:1010bc00008fbe00424798004e409000e14f500018
:1010cc0005003a001e0178009e0190009280880075
:1010dc00a3808800070037004e4090000004e00019
:1010ec0004003a001e0178009e019000d280880016
:1010fc00e38088000080fa00000006001a00fa0065
:10110c00881f7800b901070021ff0700650107005f
:10111c008f010700a70107001c01070064cea9007e
:10112c0064eea900254ea900010037000000000064
:10113c0054010700e14f5000fcff3a004d0107003d
:10114c00000f78001e007800100078008000eb0083
:10115c002cfe070010079800210798001e80e8005d
:10116c00100078008000eb0026fe07003007980086
:10117c00410798009e0078006480400010007800c1
:10118c008000eb001ffe07005007980061079800d5
:10119c00400107009e007800648040001000780039
:1011ac008000eb0017fe07003233230033052400c8
:1011bc0069fe07000200200003582400adfd070063
:1011cc00d2cc2c00c304240063fe070070079800e7
:1011dc00010f98007e0190008e0990000000200005
:1011ec0081202400a3fd070002002000030a240034
:1011fc0042fd070010818800218188001e80e800d4
:10120c00100078008000eb00fefd07003233230055
:10121c003305240050fe0700020020000358240070
:10122c0094fd0700d2cc2c00c30424004afe070016
:10123c00100f9800210f98001e099000ae09900025
:10124c0000002000812024008afd070002002000fd
:10125c00030a240029fd07003081880041818800a1
:10126c001e007800100078008000eb00e5fd070000
:10127c00323323003305240037fe07000200200020
:10128c00035824007bfd0700d2cc2c00c30424009f
:10129c0031fe0700300f9800410f98003e09900076
:1012ac00ce099000000020008120240071fd070071
:1012bc0002002000030a240010fd07005081880062
:1012cc0061818800108180002181800018c0b300ea
:1012dc0002002000031f2400a8fd07000000e0000e
:1012ec00010035000044eb000804e000020032006d
:1012fc0064cea8000100370064cea90030818000c4
:10130c004181800018c0b30002002000031f24009c
:10131c009afd07000000e000010035000044eb00de
:10132c000804e0000200320064eea800010037005f
:10133c0064eea900508180006181800018c0b30068
:10134c0002002000031f24008cfd07000000e000b9
:10135c00010035000044eb000804e00002003200fc
:10136c00254ea80072ff3700254ea90070ff3700ec
:10137c000400fa00881f7800008fbe0018c0b3006c
:10138c006011b8001e0078009e0090007dfd0700e3
:10139c000000e00001003d000044eb000804e00008
:1013ac00030032001e0078009e00900003003700fe
:1013bc001e0078009e00900001f0a2004f047800ff
:1013cc000080fa00000006000800fa00881f780070
:1013dc00008fbe00220798003307980018c0b30096
:1013ec002e019000be0190001e0078009e0090001f
:1013fc0064fd07000000e00001003c000044eb002d
:10140c000804e000030032001e0078009e009000eb
:10141c00020037002e009000be0090004f047800b0
:10142c000080fa00000006000800fa00881f78000f
:10143c00008fbe00220798003307980018c0b30035
:10144c002e019000be0190001e0078009e009000be
:10145c004afd07000000e000010035000044eb00ed
:10146c000804e000030032001e0078009e0090008b
:10147c00020037002e009000be0090004f04780050
:10148c000080fa00000006000c00fa00881f7800ab
:10149c00008fbe002207980033079800440798007d
:1014ac005507980018c0b3004e019000de01900063
:1014bc001e0078009e00900032fd07000000e00046
:1014cc0001003c000044eb000804e0000400320082
:1014dc004e019000de019000028fbe000e0037001e
:1014ec0018c0b3002e019000be0190001e007800c1
:1014fc009e00900021fd07000000e0000100350077
:10150c000044eb000804e000030032002e019000c0
:10151c00be019000028fbe001e0078009e0090005d
:10152c004f0478000080fa00000006000400fa0066
:10153c00008fbe00b2fd2000930424001e00780032
:10154c009e009000cbfc07000200200043332400d7
:10155c0081fd07000080fa00000006000400fa007c
:10156c00008fbe00b2fd2000930424001e00780002
:10157c009e00900078fd07000200200043332400f9
:10158c00bcfc07000080fa00000006000000fa0016
:10159c0021e3a9002143a80001198000f0cf2f00fe
:1015ac0000806000001988002043a9000119800008
:1015bc00000e200001007000001988001119800035
:1015cc00f0ff210000806000101988002343a80060
:1015dc0011198000f0cf2f000080600010198800d6
:1015ec001119800030f82f00008060000030a0003e
:1015fc00101988002203a9002223a90025e3a900c1
:10160c00f0c0b30024e3b70021198000f00f2e00c6
:10161c008080600000f0200001007000201988001c
:10162c003303a9002e0ea8002f6ea8006f2ea80061
:10163c0030c3a8003163a8002e03a8004119800014
:10164c0000fc2f00008060004019880028e3a900ee
:10165c0001a8a90021a8a80021e3a8000080fa0095
:10166c00000006000000fa002023a8000080fa0009
:10167c00000006000000fa00200021000080fa00a3
:10168c00000006000000fa000ad0bf000080fa003b
:10169c00000006000000fa000a70ef000080fa005b
:1016ac00000006000000fa00f0032000303a880029
:1016bc00213a8000f0f32f0000806000203a88006f
:1016cc00213a800000fe2f00008060000000a00086
:1016dc00203a88001200200080072000a109200079
:1016ec003374200080497800814978008249780061
:1016fc00103a8000000178000200a0006004200075
:10170c0071052000237420008049780081497800fd
:10171c008249780000000000113a80000000270088
:10172c008080600000002100808f5000faff3a009a
:10173c0000000000113a80000002200000806000d0
:10174c000000e000fbff32000080fa000000060001
:10175c000000fa0013e1a90011e1a9001061a80032
:10176c001021a90081088000f0fc2f00008060008f
:10177c00800888000a21ef000621ef00404c200071
:10178c007008880000402b0060088800214280000f
:10179c0080ff2f00008060000000a0002042880025
:1017ac000108a9002108a80011e1a8000080fa0096
:1017bc00000006000000fa0005e1a90021088000e5
:1017cc000003200001007000200888000421a900fb
:1017dc0050c32000100888000068a9002068a800e9
:1017ec0005e1a8000080fa00000006000000fa00e5
:1017fc000e2eef001e2eef002e2eef003e2eef00d1
:10180c004e2eef005e2eef006e2eef00214ea90043
:10181c0060cea90060eea90011cea90011eea900be
:10182c0020cea90020eea9000080fa0000000600de
:020000040000fa
:10183c000c100000020000008000000010100000de
:10184c001e000000800000000e10000002000000ce
:10185c008200000005000000001000000c000000d9
:08186c008000000000000000f4
:020000040000fa
:02000004000af0
:04afe000cfff00009f
:020000040000fa
:02000004000af0
:04afe400ffff00006b
:020000040000fa
:02000004000af0
:04afe8007fff0000e7
:020000040000fa
:02000004000af0
:04afec005fff000003
:020000040000fa
:02000004000af0
:04aff00038ff000026
:020000040000fa
:02000004000af0
:04aff400ffff00005b
:00000001FF
