:020000040000fa
:080000000002040000000000f2
:020000040000fa
:040008007003000081
:020000040000fa
:04000c00700300007d
:020000040000fa
:040010007003000079
:020000040000fa
:040014007003000075
:020000040000fa
:040018007003000071
:020000040000fa
:04001c00700300006d
:020000040000fa
:040020007003000069
:020000040000fa
:040024007003000065
:020000040000fa
:040028007003000061
:020000040000fa
:04002c00700300005d
:020000040000fa
:040030007003000059
:020000040000fa
:0400340002030000c3
:020000040000fa
:040038007003000051
:020000040000fa
:04003c00700300004d
:020000040000fa
:040040007003000049
:020000040000fa
:040044007003000045
:020000040000fa
:04004800fa020000b8
:020000040000fa
:04004c00700300003d
:020000040000fa
:040050007003000039
:020000040000fa
:040054007003000035
:020000040000fa
:040058007003000031
:020000040000fa
:04005c004c03000051
:020000040000fa
:040060007003000029
:020000040000fa
:040064007003000025
:020000040000fa
:040068007003000021
:020000040000fa
:04006c00700300001d
:020000040000fa
:040070007003000019
:020000040000fa
:040074007003000015
:020000040000fa
:040078007003000011
:020000040000fa
:04007c00700300000d
:020000040000fa
:040080007003000009
:020000040000fa
:040084007003000005
:020000040000fa
:040088007003000001
:020000040000fa
:04008c0070030000fd
:020000040000fa
:0400900070030000f9
:020000040000fa
:040094002203000043
:020000040000fa
:0400980070030000f1
:020000040000fa
:04009c0070030000ed
:020000040000fa
:0400a00070030000e9
:020000040000fa
:0400a40070030000e5
:020000040000fa
:0400a80070030000e1
:020000040000fa
:0400ac0070030000dd
:020000040000fa
:0400b00070030000d9
:020000040000fa
:0400b40070030000d5
:020000040000fa
:0400b80070030000d1
:020000040000fa
:0400bc0070030000cd
:020000040000fa
:0400c00070030000c9
:020000040000fa
:0400c40070030000c5
:020000040000fa
:0400c80070030000c1
:020000040000fa
:0400cc0070030000bd
:020000040000fa
:0400d00070030000b9
:020000040000fa
:0400d40070030000b5
:020000040000fa
:0400d80070030000b1
:020000040000fa
:0400dc0070030000ad
:020000040000fa
:0400e00070030000a9
:020000040000fa
:0400e40070030000a5
:020000040000fa
:0400e80070030000a1
:020000040000fa
:0400ec00700300009d
:020000040000fa
:0400f0007003000099
:020000040000fa
:0400f4007003000095
:020000040000fa
:0400f8007003000091
:020000040000fa
:0400fc00700300008d
:020000040000fa
:040100007003000088
:020000040000fa
:040104007003000084
:020000040000fa
:040108007003000080
:020000040000fa
:04010c00700300007c
:020000040000fa
:040110007003000078
:020000040000fa
:040114007003000074
:020000040000fa
:040118007003000070
:020000040000fa
:04011c00700300006c
:020000040000fa
:040120007003000068
:020000040000fa
:040124007003000064
:020000040000fa
:040128007003000060
:020000040000fa
:04012c00700300005c
:020000040000fa
:040130007003000058
:020000040000fa
:040134007003000054
:020000040000fa
:040138007003000050
:020000040000fa
:04013c00700300004c
:020000040000fa
:040140007003000048
:020000040000fa
:040144007003000044
:020000040000fa
:040148007003000040
:020000040000fa
:04014c00700300003c
:020000040000fa
:040150007003000038
:020000040000fa
:040154007003000034
:020000040000fa
:040158007003000030
:020000040000fa
:04015c00700300002c
:020000040000fa
:040160007003000028
:020000040000fa
:040164007003000024
:020000040000fa
:040168007003000020
:020000040000fa
:04016c00700300001c
:020000040000fa
:040170007003000018
:020000040000fa
:040174007003000014
:020000040000fa
:040178007003000010
:020000040000fa
:04017c00700300000c
:020000040000fa
:040180007003000008
:020000040000fa
:040184007003000004
:020000040000fa
:040188007003000000
:020000040000fa
:04018c0070030000fc
:020000040000fa
:0401900070030000f8
:020000040000fa
:0401940070030000f4
:020000040000fa
:0401980070030000f0
:020000040000fa
:04019c0070030000ec
:020000040000fa
:0401a00070030000e8
:020000040000fa
:0401a40070030000e4
:020000040000fa
:0401a80070030000e0
:020000040000fa
:0401ac0070030000dc
:020000040000fa
:0401b00070030000d8
:020000040000fa
:0401b40070030000d4
:020000040000fa
:0401b80070030000d0
:020000040000fa
:0401bc0070030000cc
:020000040000fa
:0401c00070030000c8
:020000040000fa
:0401c40070030000c4
:020000040000fa
:0401c80070030000c0
:020000040000fa
:0401cc0070030000bc
:020000040000fa
:0401d00070030000b8
:020000040000fa
:0401d40070030000b4
:020000040000fa
:0401d80070030000b0
:020000040000fa
:0401dc0070030000ac
:020000040000fa
:0401e00070030000a8
:020000040000fa
:0401e40070030000a4
:020000040000fa
:0401e80070030000a0
:020000040000fa
:0401ec00700300009c
:020000040000fa
:0401f0007003000098
:020000040000fa
:0401f4007003000094
:020000040000fa
:0401f8007003000090
:020000040000fa
:0401fc00700300008c
:020000040000fa
:040200007003000087
:020000040000fa
:040204007003000083
:020000040000fa
:04020800700300007f
:020000040000fa
:04020c00700300007b
:020000040000fa
:040210007003000077
:020000040000fa
:040214007003000073
:020000040000fa
:04021800700300006f
:020000040000fa
:04021c00700300006b
:020000040000fa
:040220007003000067
:020000040000fa
:040224007003000063
:020000040000fa
:04022800700300005f
:020000040000fa
:04022c00700300005b
:020000040000fa
:040230007003000057
:020000040000fa
:040234007003000053
:020000040000fa
:04023800700300004f
:020000040000fa
:04023c00700300004b
:020000040000fa
:040240007003000047
:020000040000fa
:040244007003000043
:020000040000fa
:04024800700300003f
:020000040000fa
:04024c00700300003b
:020000040000fa
:040250007003000037
:020000040000fa
:040254007003000033
:020000040000fa
:04025800700300002f
:020000040000fa
:04025c00700300002b
:020000040000fa
:040260007003000027
:020000040000fa
:040264007003000023
:020000040000fa
:04026800700300001f
:020000040000fa
:04026c00700300001b
:020000040000fa
:040270007003000017
:020000040000fa
:040274007003000013
:020000040000fa
:04027800700300000f
:020000040000fa
:04027c00700300000b
:020000040000fa
:040280007003000007
:020000040000fa
:100400000f0421000eff2c000e01880000000000e8
:10041000000020000000e000020032000001200087
:100420002002880014000700af0007000000e00071
:1004300003003a00401221000100200002003700b2
:100440000000200001002000810f70000100320038
:100450000f000700000020000000e0000200320052
:10046000000002000000000002070200000000007f
:100470000040da000000fe00200020000000e00044
:1004800002003200100020009001880000000600e9
:10049000a1028800800478000000eb001f003700f4
:1004a000e284440054a0b4009905ba00e2844400f8
:1004b00054a0b4009906ba00e284440054a0b400e9
:1004c0000006eb00476fde00fd07b200ae018800ba
:1004d000636ce10003003a000ad801000000eb0061
:1004e0000e003700606ce10008003a00004deb00a0
:1004f0000a05e800020039003420ec000af0a000f0
:100500008b05e900f9ff3e00040037006168e10057
:10051000010032000086eb000b00070019c7ba008b
:100520000e04e0001905ba0003003a000a00e000da
:10053000dbff3a0000000600fe07b200ae028800b2
:100540008a047800f5ff37000cd0a300e20f4d00bd
:100550001c00390089027800354dba000a05e80010
:10056000020039003420ec000af0a0008b05e900fd
:100570000f003200254dba000a05e80002003900dc
:100580003420ec000af0a0008b05e90008003200de
:100590000c00e0000600320015cdba000a05e800a4
:1005a000020039003420ec000af0a0008b05e900bd
:1005b0008984e80054a0b4000b00e000e2ff3a0098
:1005c000000006009902ba00055d78008b05e9007d
:1005d000f7ff3200c82ade00055d78008b05e900d0
:1005e000f3ff32000c00e000f1ff320019ddba0029
:1005f000eeff37000000fa000108a9000080fa00b1
:10060000004006003600f800809fbe00829fbe00ba
:10061000849fbe00869fbe000000fa000068a9000b
:100620004d050700cd0607000080fa004f03be000d
:100630004f02be004f01be004f00be003600f90061
:10064000004006003600f800809fbe00829fbe007a
:10065000849fbe00869fbe000000fa000368a900c8
:10066000108080002180800061004000e080480010
:100670001080880021808800b70207000080fa00ff
:100680004f03be004f02be004f01be004f00be0030
:100690003600f90000400600801f78000000fa00d4
:1006a00001a8a90000188000a0818800101880000f
:1006b000b081880020188000c08188003018800038
:1006c000d081880040188000e081880010c0b3000d
:1006d0000df0b7000080fa004f00780000400600df
:1006e0000040da000000fe000000050003f0a20058
:1006f000889fbe008a9fbe008c1f78001b010700e8
:10070000220133006450e1004f0032006420e10018
:100710005200320003826c0007003b000905d00044
:100720000306d000820f54000c065d000200390061
:1007300002003200890178000306780085825500a6
:1007400004003d000003fd008103fd008502ea0076
:100750008b854200840f720002003b006000100095
:10076000e08018006011b8000005eb007a28e10075
:100770000a00390006007800c75ddd00f707b20007
:10078000878075002d003700828171000a01780092
:10079000610560008180d1000080d3008502e900fe
:1007a000f9ff3b00060440008784480002003b003c
:1007b00060041400e0841c000988a30007003200d4
:1007c0008a81710082817100610164008904d10015
:1007d0000884d3008b05e800170037000978a300d0
:1007e00013003a000b00e000130034008b05e90011
:1007f0000804440089844c000a4474000978a3006a
:100800000d003a000b00e000070034008b05e90002
:100810000804440089844c0001003a000b002000c9
:100820000978a300f7ff32000001eb000200370057
:10083000828171000a017800910007000cf0a70086
:1008400001f0a000da0037006420e10002003a0065
:10085000838f6c00da0033000801be000200be0086
:10086000d3003700889fbe008a9fbe008c1f78008f
:10087000be000700c500330003866c006450e10031
:100880002e0032006420e100330032006150e100ac
:100890002f0032006120e1003100320085855500d3
:1008a000eb07b00009002000080420000500370015
:1008b0000804440089844c000a0031000603430008
:1008c00087834b000001530081815b00f8ff3300f8
:1008d0000203be000800a0000804440089844c0004
:1008e000f6ff3900c639dd008301730001003200d4
:1008f000130020008904d1000884d3000998a300c4
:10090000050032000800a7000300a0008904d10000
:100910000884d3008b05e8008904d1000884d30043
:100920000001eb000281d2005500070001f0a10098
:100930000cf0a70001f0a0009d0037006420e1004a
:100940009f0032000801be000200be00f7ff370022
:100950006120e1009a0032006000b800f3ff370028
:100960000000200001f82700f0ff370014002000ed
:10097000ca003700f4ff2f00c80037000001be0096
:10098000650007000470a70003f0a1006509b1002d
:10099000160032000d0035006828e1000600350021
:1009a000f0ff2f00f1ff27000300e00013003b00e1
:1009b0000100280000000500000040008180480080
:1009c0008502e900fcff3a0008003700f88f42007a
:1009d00002003c008000eb00000005008100d10017
:1009e0000080d3008502e800fcff3a000300e0002d
:1009f00002003b0060001000e080180000000600cc
:100a00000001be00440007000470a70003f0a1002d
:100a100003f8a30013003a006509b100100032008a
:100a2000090035006928e1000200350001002800b6
:100a30000000050000004000818048008502e900b8
:100a4000fcff3a0000000600f88f42000500350068
:100a50008100d1000080d3008502e800fcff3a004d
:100a6000000006008000eb00000005004f89de005a
:100a700082017800a40037006011b800b20037008e
:100a800081002000618055000b003d000b0020001c
:100a900061fe2f000100e1001d0034008281710021
:100aa000610164008904d1000884d3000000e800db
:100ab000faff3a007100200061006400030070003a
:100ac000020060000900320061044400e0844c0030
:100ad0000988a500050032008b05e8006808e100e0
:100ae00002003a008904d1000884d300f20f2000ec
:100af0000258e10005003d00c75ddd00f907b200c6
:100b00008980750008007800000006000bf82700b7
:100b10008b00780000000500c70ade00f107b20074
:100b2000f50fb20008003200e1cf420002003200af
:100b30000170a00024000500810f70000100320048
:100b40000408050044000500810f700002003a000f
:100b5000140005008502e9000000400081c0480043
:100b6000fcff3b000170a000240005000004be0053
:100b7000e9ff07000003be000405be000200be003e
:100b8000e5ff0700844f7500000006000200be006c
:100b90006450e100050036006420e10002003600e8
:100ba0000968a30001003a000800be000160a0002f
:100bb0004f0678004f05be004f04be00000006003f
:100bc000f0ff2f00f1ff2700f9ff3700889fbe00dc
:100bd0008a9fbe008c1f7800e4ff0700ebff330004
:100be00003866c006450e100240032006420e100c0
:100bf000270032006150e100220032006120e10054
:100c0000210032008b854200eb07b1000134b800af
:100c1000003ab8000804420089844a00013ab8004a
:100c20000030b8008880400009014a000400330009
:100c30000000400081804800020149008b05e90066
:100c4000c909dd008301700001003200130020009b
:100c5000c814de004814dd004709de001200b200af
:100c6000c808de000884700085ff070001f0a100bd
:100c70000cf0a70001f0a000cdff37006120e100db
:100c8000cfff32000801be000200be00f7ff3700b0
:100c90006150e100fcff3a00c9ff3700889fbe00a9
:100ca0008a9fbe00841f7800b0ff07004f007800c5
:100cb00011003300f0ff2f00838f6c0006003b0013
:100cc000040565000a00a7000800370009f0a60027
:100cd0001000200008003700820f5400838f5c0052
:100ce000030039001000200001003e000000200039
:100cf00009f0a7000000ea004f05be004f04be0047
:100d00000000e00000000600881f7800030478005f
:100d10000300e00007003d0060001000e0801800c4
:100d200060011900e081190002003b0001f02d0074
:100d3000030037000400070008f0a70001f0a0003e
:100d40004f04780000000600889fbe008a9fbe0006
:100d500000827000040271000482710026003200db
:100d60000004be000200be006011b8006b09200044
:100d7000950220000182cf000a0039000541b10030
:100d80000082cf00070039000541b1000982cf0081
:100d9000040039000541b1000882cf00010039008c
:100da0000541b10005425200120032000a003b002a
:100db00082817100610164008100d1000080d30054
:100dc0008984d3000884d3008b05e8000442e8003e
:100dd000f7ff3a00070037000804440089844c00fc
:100de00000004800818048008b05e9000442e900ca
:100df000f9ff3a0022ff07004f05be004f04be0076
:040e000000000600e8
:020000040000fa
:100e04000600fa00881f7800e304070021050700a4
:100e14001d02070035020700b30207003103070073
:100e24009304070064cea90064eea900254ea9002e
:100e34000100370000000000cf040700e14f50001c
:100e4400fcff3a00c8040700000f7800ce04070036
:100e54001e80e800100078008000eb0005ff07000a
:100e6400323323003305240057ff0700020020001b
:100e7400035824007afe0700d2cc2c00c3042400bb
:100e840051ff070010079800210798001e019000e9
:100e9400ae019000000020008120240070fe0700b5
:100ea40002002000030a24000ffe070000818800ce
:100eb400118188009e007800648040001000780052
:100ec4008000eb00ebfe07003233230033052400df
:100ed4003dff0700020020000358240060fe0700c5
:100ee400d2cc2c00c304240037ff0700100798005d
:100ef400210798001e019000ae0190000000200020
:100f04008120240056fe070002002000030a24006a
:100f1400f5fd070020818800318188009e0078005b
:100f240068804000100078008000eb00d1fe0700cc
:100f3400323323003305240023ff0700020020007e
:100f44000358240046fe0700d2cc2c00c30424001e
:100f54001dff070010079800210798001e0190004c
:100f6400ae01900000002000812024003cfe070018
:100f740002002000030a2400dbfd070040818800f2
:100f8400518188001e007800100078008000eb007a
:100f9400b8fe070032332300330524000aff07009c
:100fa40002002000035824002dfe0700d2cc2c00a0
:100fb400c304240004ff07001007980021079800c9
:100fc4001e019000ae01900000002000812024004a
:100fd40023fe070002002000030a2400c2fd0700cc
:100fe40080818800918188009e007800668040009e
:100ff400100078008000eb009efe070032332300cf
:1010040033052400f0fe07000200200003582400ea
:1010140013fe0700d2cc2c00c3042400eafe070010
:1010240010079800210798001e019000ae0190005f
:10103400000020008120240009fe07000200200097
:10104400030a2400a8fd07006081880071818800dc
:10105400408180005181800018c0b300020020004c
:10106400031f240040fe07000000e00001003500db
:101074000044eb000804e0000b003a0060818000ab
:101084007181800018c0b30002002000031f2400f7
:1010940035fe07000000e000010035000044eb00cd
:1010a4000804e0000200320064cea800010037000a
:1010b40064cea900208180003181800018c0b30073
:1010c40002002000031f240027fe07000000e000a8
:1010d400010035000044eb000804e0000200320087
:1010e40064eea8000100370064eea90000818000ce
:1010f4001181800018c0b30002002000031f2400e7
:1011040019fe07000000e000010035000044eb0078
:101114000804e0000b003a00808180009181800087
:1011240018c0b30002002000031f24000efe0700b5
:101134000000e000010035000044eb000804e0007a
:1011440002003200254ea8003bff3700254ea900bf
:1011540039ff37000000fa0006d0bf000080fb0012
:10116400cf80de00b200200003002000820f500078
:10117400838f580060003e00000601000b0037001a
:10118400140037001d0037002700370028003700ff
:1011940031003700320037003b0037003c00370095
:1011a4004600370047003700510037000230ef0097
:1011b4000430ef000041eb006000b80010030700aa
:1011c40012c0b3006000b8000d03070010c0b300e4
:1011d40006f0b7001280800023808000803e20004b
:1011e40001002000800f5100818f59004500360016
:1011f40020c0b30006f0b700430037000041eb0005
:1012040000002000011f2400fd02070012c0b300eb
:1012140000002000011f2400f902070030c0b300c1
:1012240006f0b700380037003900070036003700f1
:101234000041eb0000002000011f2400f002070021
:1012440012c0b3006000b800ed02070050c0b30044
:1012540006f0b7002c0037002d0007002a003700e5
:101264000041eb006000b800e502070012c0b300c3
:1012740000002000011f2400e102070070c0b30039
:1012840006f0b70020003700210007001e003700d9
:101294000041eb000000200001172400d8020700e1
:1012a40012c0b3000000200001172c00d402070074
:1012b40090c0b30006f0b700130037001400070015
:1012c400110037000041eb000000200001172c0042
:1012d400cb02070012c0b300000020000117240055
:1012e400c7020700b0c0b30006f0b700060037001d
:1012f40007000700040037000670ef00000000003c
:1013040001003700000000000080fa000000060021
:101314000000fa00881f78000870ef0060818000e8
:101324007181800018c0b30002002000031a240059
:101334008dfd07000000e000010035000044eb00d3
:101344000804e0000300320008d0bf000044a000fd
:1013540008f0b700408180005181800018c0b300bc
:1013640002002000031a24007ffd07000000e000b3
:10137400010035000044eb000804e00003003200e3
:1013840008d0bf000034a00008f0b700208180001e
:101394003181800018c0b30002002000031a240029
:1013a40071fd07000000e000010035000044eb007f
:1013b4000804e0000300320008d0bf000024a000ad
:1013c40008f0b700008180001181800018c0b300cc
:1013d40002002000031a240063fd07000000e0005f
:1013e400010035000044eb000804e0000300320073
:1013f40008d0bf000014a00008f0b700808180006e
:101404009181800018c0b30002002000031a240058
:1014140055fd07000000e000010035000044eb002a
:101424000804e0000300320008d0bf000004a0005c
:1014340008f0b70008d0bf000080fb00cf80de00ba
:10144400f201200003002000820f5000838f580017
:1014540081003e00000601001f0037002100370014
:101464002300370025003700270037002900370004
:101474002b0037002d0037002f00370031003700d4
:1014840033003700350037003700370039003700a4
:101494003b0037003d0037003f0037004100370074
:1014a4004300370045003700470037004900370044
:1014b4004b0037004d0037004f0037005100370014
:1014c40053003700550037005700370059003700e4
:1014d4005b0037005d00370020c0b30007f0b700a1
:1014e4005d00370020c0b30007f0b7005a00370092
:1014f40040c0b30007f0b7005700370040c0b30046
:1015040007f0b7005400370080c0b30007f0b700fd
:101514005100370080c0b30007f0b7004e00370019
:1015240080c0b30007f0b7004b00370080c0b300a1
:1015340007f0b7004800370060c0b30007f0b700f9
:101544004500370060c0b30007f0b7004200370021
:1015540080c0b30007f0b7003f00370080c0b3007d
:1015640007f0b7003c003700a0c0b30007f0b70095
:1015740039003700a0c0b30007f0b70036003700c9
:10158400a0c0b30007f0b7003300370080c0b30039
:1015940007f0b7003000370020c0b30007f0b700f1
:1015a4002d00370020c0b30007f0b7002a00370031
:1015b40040c0b30007f0b7002700370040c0b300b5
:1015c40007f0b70024003700a0c0b30007f0b7004d
:1015d40021003700a0c0b30007f0b7001e00370099
:1015e400a0c0b30007f0b7001b00370080c0b300f1
:1015f40007f0b7001800370060c0b30007f0b70069
:101604001500370060c0b30007f0b70012003700c0
:10161400a0c0b30007f0b7000f003700a0c0b300ac
:1016240007f0b7000c003700a0c0b30007f0b70004
:1016340009003700a0c0b30007f0b7000600370068
:10164400a0c0b30007f0b70003003700a0c0b30088
:1016540007f0b7000000000007d0bf008080fb0047
:1016640006d0bf000080fb000000e900808f50001e
:101674000200320007d0bf0006f0b7004f04780024
:101684000080fa00000006000000fa0013e1a9003f
:1016940011e1a9001061a8001021a90081088000af
:1016a400f0fc2f0000806000800888000a21ef0011
:1016b4000621ef00404c20007008880000402b00f9
:1016c400600888002142800080ff2f0000806000b5
:1016d4000000a000204288000108a9002108a800f9
:1016e40011e1a8000080fa00000006000000fa00e2
:1016f40000002000a13724000700070005e1a9002d
:101704000421a9000068a9002068a80005e1a80038
:101714000080fa00000006000400fa00881f780028
:10172400008fbe0021088000f0fc2f0000806000c4
:10173400200888001e0178009e019000006829009e
:1017440081c1240046fc070018c0b30002f02f003a
:10175400f377240086fc07000000e00001003c0051
:101764000044eb000804e00054003200210880002b
:10177400f0fc2f00008060000040a00020088800da
:101784001e0178009e0190000068290081c1240098
:1017940033fc0700020020000310240030fc070083
:1017a40018c0b30002f02f00f377240070fc070088
:1017b4000000e00001003c000044eb000804e000ed
:1017c4003200320021088000f0fc2f00008060000d
:1017d4000050a000200888001e0178009e0190009f
:1017e4000068290081c124001dfc070002002000bc
:1017f400032824001afc070018c0b30002f02f00cd
:10180400f37724005afc07000000e00001003c00cc
:101814000044eb000804e0001000320021088000be
:101824000003200001007000200888001e017800d9
:101834009e0190000068290081c1240008fc070073
:10184400020020000338240005fc07004afc0700be
:101854000000780010088800200037001e0178007e
:101864009e0190000068290081c12400fcfb070050
:101874000200200003282400f9fb07003efc0700b7
:101884000000780010088800140037001e0178005a
:101894009e0190000068290081c12400f0fb07002c
:1018a4000200200003102400edfb070032fc0700b7
:1018b4000000780010088800080037001e01780036
:1018c4009e0190000068290081c12400e4fb070008
:1018d40029fc070000007800100888004f047800f5
:1018e4000080fa00000006000000fa00000020005a
:1018f400a1472400070007001fe1a9001e21a90039
:101904000368a9002368a8001fe1a8000080fa006a
:10191400000006000400fa00881f7800008fbe0053
:10192400f1088000f0fc2f0000806000f0088800bf
:101934001e0178009e0190000068290081c12400e6
:10194400c7fb070018c0b30002f02f00f377240090
:1019540007fc07000000e00001003c000044eb002d
:101964000804e00054003200f1088000f0fc2f006d
:10197400008060000040a000f00888001e0178008c
:101984009e0190000068290081c12400b4fb070077
:101994000200200003102400b1fb070018c0b300ac
:1019a40002f02f00f3772400f1fb07000000e000b1
:1019b40001003c000044eb000804e0003200320067
:1019c400f1088000f0fc2f00008060000050a000af
:1019d400f00888001e0178009e019000006829002c
:1019e40081c124009efb070002002000032824007c
:1019f4009bfb070018c0b30002f02f00f37724000c
:101a0400dbfb07000000e00001003c000044eb00a9
:101a14000804e00010003200f108800000032000f8
:101a240001007000f00888001e0178009e019000fb
:101a34000068290081c1240089fb070002002000fe
:101a44000338240086fb0700cbfb07000000780066
:101a5400d0088800200037001e0178009e01900005
:101a64000068290081c124007dfb070002002000da
:101a7400032824007afb0700bffb0700000078005e
:101a8400d0088800140037001e0178009e019000e1
:101a94000068290081c1240071fb070002002000b6
:101aa400031024006efb0700b3fb0700000078005e
:101ab400d0088800080037001e0178009e019000bd
:101ac4000068290081c1240065fb0700aafb070008
:101ad40000007800d00888004f0478000080fa00e5
:101ae400000006000000fa001160800080ff2f0053
:101af400008060001060880000fa200020608800e8
:101b040023aca800238ca80011618000f03f2f00b3
:101b14000080600000a0a000106188003000200058
:101b240020618800c3aca800c38ca80011668000a3
:101b3400f03f2f000080600000a0a0001066880025
:101b4400300020002066880001eca8000080fa0024
:101b5400000006000000fa00889fbe008a9fbe00b5
:101b6400e4808000f5808000c0808000d180800007
:101b740018c0b3000001be000400be007afb0700d9
:101b84000000e000010035000044eb000804e00020
:101b94000f003200c8808000d9808000ea80800075
:101ba400fb8080000ad0bf000080fb00cf80de00f5
:101bb400adfb07000001be000a00be00cbfa07001f
:101bc4000801be00d1000700e0808800f180880091
:101bd400e4808000f5808000c0808000d180800097
:101be40018c0b3000001be000400be0060fb070083
:101bf4000000e00001003c000044eb000804e000a9
:101c04000f003200c8808000d9808000ea80800004
:101c1400fb8080000ad0bf000080fb00cf80de0084
:101c240091fb07000001be000a00be00aefa0700e7
:101c34000801be009d000700e0808800f180880054
:101c4400e0808000f180800018c0b3006011b8000b
:101c540047fb07000000e00001003c000044eb00eb
:101c64000804e00004003200c3cca90024eea8005c
:101c7400c3eca80003003700c3eca90024cea800dd
:101c8400c3cca800e0808000f180800071000700d0
:101c94000200200003222400cbfb070057fb0700af
:101ca4000000780030668800a4808000b580800041
:101cb400808080009180800018c0b3000001be00c5
:101cc4000400be0028fb07000000e000010035000e
:101cd4000044eb000804e0000f003200888080001c
:101ce40099808000aa808000bb8080000ad0bf0059
:101cf4000080fb00cf80de005bfb07000001be001c
:101d04000a00be0079fa07000801be007f00070040
:101d1400a0808800b1808800a4808000b580800005
:101d2400808080009180800018c0b3000001be0054
:101d34000400be000efb07000000e00001003c00b0
:101d44000044eb000804e0000f00320088808000ab
:101d540099808000aa808000bb8080000ad0bf00e8
:101d64000080fb00cf80de003ffb07000001be00c7
:101d74000a00be005cfa07000801be004b00070021
:101d8400a0808800b1808800a0808000b18080009d
:101d940018c0b3006011b800f5fa07000000e000b5
:101da40001003c000044eb000804e00004003200a1
:101db40023cca90015eea80023eca80003003700eb
:101dc40023eca90015cea80023cca800a080800095
:101dd400b18080001f0007000200200003222400bd
:101de40079fb070005fb07000000780030618800dc
:101df4004f05be004f04be000080fa00000006003c
:101e04000600fa00008fbe00424798004e40900042
:101e1400e14f500005003a001e0178009e01900039
:101e24008280880093808800080037004e4090002c
:101e34000004e00005003a001e0078009e009000b7
:101e440001f0a200c0808800d18088000080fa00e0
:101e5400000006000400fa00881f7800008fbe000e
:101e640018c0b3006011b8001e0078009e009000f6
:101e7400bffa07000000e00001003d000044eb0051
:101e84000804e000030032001e0078009e00900069
:101e9400030037001e0078009e00900001f0a200ad
:101ea4004f0478000080fa00000006000800fa00e1
:101eb400881f7800008fbe0022079800330798001f
:101ec40018c0b3002e019000be0190001e007800df
:101ed4009e009000a6fa07000000e00001003c000c
:101ee4000044eb000804e000030032001e00780008
:101ef4009e009000020037002e009000be0090006b
:101f04004f0478000080fa00000006000800fa0080
:101f1400881f7800008fbe002207980033079800be
:101f240018c0b3002e019000be0190001e0078007e
:101f34009e0090008cfa07000000e00001003500cc
:101f44000044eb000804e000030032001e007800a7
:101f54009e009000020037002e009000be0090000a
:101f64004f0478000080fa00000006000c00fa001c
:101f7400881f7800008fbe0022079800330798005e
:101f8400440798005507980018c0b3004e0190000c
:101f9400de0190001e0078009e00900074fa070095
:101fa4000000e00001003c000044eb000804e000f5
:101fb400040032004e019000de019000028fbe004a
:101fc4000e00370018c0b3002e019000be0190002f
:101fd4001e0078009e00900063fa07000000e000f5
:101fe400010035000044eb000804e0000300320067
:101ff4002e019000be019000028fbe001e007800ea
:102004009e0090004f0478000080fa000000060053
:102014000400fa00008fbe00b2fd200093042400e7
:102024001e0078009e0090000dfa070002002000b8
:1020340043332400e4fa07000080fa00000006009d
:102044000400fa00008fbe00b2fd200093042400b7
:102054001e0078009e009000dbfa070002002000ba
:1020640043332400fef907000080fa000000060054
:102074000000fa0021e3a9002143a800011980000f
:10208400f0cf2f0000806000001988002043a900d1
:1020940001198000000e2000010070000019880062
:1020a40011198000f0ff21000080600010198800e1
:1020b4002343a80011198000f0cf2f000080600096
:1020c400101988001119800030f82f00008060007a
:1020d4000040a000101988002203a9002223a900af
:1020e40025e3a900f0c0b30024e3b7002119800060
:1020f400f00f2e008080600000f0200001007000ce
:10210400201988003303a9002e0ea8002f6ea80002
:102114006f2ea8001e2ea8004feea80030c3a80002
:102124003163a8002e03a8003063a80031e3a8009f
:102134004119800000fc2f000080600040198800d5
:1021440028e3a90001a8a90021a8a80021e3a80068
:102154000080fa00000006000000fa002023a80016
:102164000080fa00000006000000fa00400321008d
:102174000080fa00000006000000fa000dd0bf0045
:102184000080fa00000006000000fa000d70ef0065
:102194000080fa00000006000000fa00f0032000ae
:1021a400303a8800213a8000f0f32f00008060006c
:1021b400203a8800213a800000fe2f000080600051
:1021c4000000a000203a88001200200080072000b0
:1021d400a1092000337420008049780081497800e7
:1021e40082497800103a8000000178000200a000c3
:1021f40060042000710520002374200080497800c9
:10220400814978008249780000000000113a80007a
:10221400000027008080600000002100808f5000b3
:10222400faff3a0000000000113a8000000220008a
:10223400008060000000e000fbff32000080fa0034
:042244000000060090
:020000040000fa
:1022480006100000040000008000000000100000dc
:1022580006000000800000000e10000026000000ac
:10226800800000000a100000020000008200000048
:1022780005000000341000000c0000008000000081
:102288000c100000020000008000000000000000a8
:020000040000fa
:102298000000fa000e2eef001e2eef002e2eef008b
:1022a8003e2eef004e2eef005e2eef006e2eef005a
:1022b800214ea90060cea90060eea90011cea900a8
:1022c80011eea90020cea90020eea9000080fa0096
:0422d80000000600fc
:020000040000fa
:02000004000af0
:04afe000cfff00009f
:020000040000fa
:02000004000af0
:04afe400ffff00006b
:020000040000fa
:02000004000af0
:04afe8007fff0000e7
:020000040000fa
:02000004000af0
:04afec005fff000003
:020000040000fa
:02000004000af0
:04aff00038ff000026
:020000040000fa
:02000004000af0
:04aff400ffff00005b
:00000001FF
